:10000000001000100D0100008501000085010000B6
:1000100000000000000000000000000000000000E0
:10002000000000000000000000000000850100004A
:1000300000000000000000008501000085010000B4
:100040008501000085010000850100008501000098
:100050008501000085010000850100008501000088
:100060008501000085010000850100008501000078
:100070008501000085010000850100008501000068
:100080008501000085010000850100008501000058
:10009000850100007D02000085010000850100004F
:1000A0008501000085010000850100008501000038
:1000B0008501000085010000850100008501000028
:1000C00080B500AF0B4B00221A600B4B23221A6045
:1000D0000A4B0A4A126880218A431A60084B01229F
:1000E0001A60084B03221A60074B01221A60C046AF
:1000F000BD4680BD408004400880044038820440F2
:1001000044800440708004407480044080B584B012
:1001100000AF174BFB60174BBB60174A154BD31A48
:100120007B6007E0BB685A1CBA60FA68511CF96032
:1001300012781A707B685A1E7A60002BF2D10F4B2E
:10014000BB600F4A0D4BD31A7B6004E0BB685A1C9E
:10015000BA6000221A707B685A1E7A60002BF5D1B3
:10016000FFF7AEFF00F0C4FEC046BD4604B080BD40
:10017000A118000000000010000100100001001094
:100180006402001080B500AFFEE7C04680B500AF46
:1001900000232E4A53602D4A13602C4A936000239B
:1001A0002B4A53602A4A1360294A9360294B294AF3
:1001B000126829490A431A60284B284A126801210B
:1001C0000A431A60254B254A126806218A431A60A1
:1001D000234B234A126801210A431A60204B204A0C
:1001E000126806218A431A601A4B1A4A1268802143
:1001F00049010A431A601B4B01221A601A4B1A4A22
:10020000126880210A431A60184B10221A60184B9A
:1002100038221A60174B01221A60134B124A1268D7
:1002200080218A431A60104B0F4A126803210A4347
:100230001A60104B07221A600F4B0F4A1268802178
:1002400089030A431A60C046BD4680BDD80100102C
:100250004C0100108080044040000100A440044094
:10026000A8400440988004400C8000402880004052
:10027000008000400480004000E100E090B583B0C1
:1002800000AF144B1B687B607B680422134007D0CF
:10029000114B1B68DAB2114B1100180000F024F862
:1002A0007B680222134011D00D4B9B68002B0AD0B3
:1002B0000C4B01221A60084C094B180000F038F86A
:1002C0000300236002E0074B00221A60C046BD46CF
:1002D00003B090BD0880004000800040D8010010AD
:1002E0004C0100100001001080B582B000AF7860B2
:1002F0000A00FB1C1A707B689B687F2B14D872B6AF
:100300007B689B685A1C7B689A607B681B687A686C
:10031000D318FA1C12781A737B681B6801337F228A
:100320001A407B681A6062B6C046BD4602B080BD06
:1003300080B584B000AF78600F23FB1800221A70DC
:100340007B689B68002B15D072B67B689B685A1E31
:100350007B689A607B685A680F23FB1879688A1853
:10036000127B1A707B685B6801337F221A407B68BE
:100370005A6062B60F23FB181B781800BD4604B004
:1003800080BDC04680B500AF024B9B681800BD46DB
:1003900080BDC046D801001080B500AF024B9B68FD
:1003A0001800BD4680BDC0464C01001080B582B02B
:1003B00000AF0200FB1D1A700B4B1B68402213405C
:1003C00004D00A4BFA1D12781A6006E0FB1D1A7859
:1003D000074B11001800FFF787FF064B01221A6038
:1003E000C046BD4602B080BD148000400080004081
:1003F0004C0100100001001080B500AF034B180045
:10040000FFF796FF03001800BD4680BDD80100101D
:1004100080B582B000AF786007E07B681B78180079
:10042000FFF7C4FF7B6801337B607B681B78002B80
:10043000F3D1C046BD4602B080BDC04680B582B093
:1004400000AF78607B68002B07DB7B68092B04DC3E
:100450007B68DBB23033DBB20BE07B68092B07DD56
:100460007B680F2B04DC7B68DBB23733DBB200E048
:100470007A231800BD4602B080BDC04680B586B064
:1004800000AF786008237B610823FA187B69D318D2
:1004900000221A707B69013B7B6113E07B680F22AD
:1004A00013401800FFF7CAFF030019000823FA18C9
:1004B0007B69D3180A1C1A707B681B097B607B69F7
:1004C000013B7B617B69002BE8DA0823FB181800ED
:1004D000FFF79EFFC046BD4606B080BD80B500AFA9
:1004E000C046034B1B68002BFBD1C046BD4680BDF8
:1004F0000001001080B582B000AF78607B68064ACA
:1005000053437B60C0467B685A1E7A60002BFAD149
:10051000C046BD4602B080BDCC10000080B500AF23
:100520000A4B0A4A126820218A431A600A20FFF700
:10053000E1FF064B054A126820210A431A60782021
:10054000FFF7D8FFC046BD4680BDC046FC3F005007
:1005500080B500AF044B044A126804490A401A608F
:10056000C046BD4680BDC046FC3F0050FFF7FFFFC0
:1005700080B500AF044B044A1268802109010A4388
:100580001A60C046BD4680BDFC3F005080B582B0B9
:1005900000AF0200FB1D1A70FFF7DAFFFB1D1B788E
:1005A000180000F011FCC046BD4602B080BDC04638
:1005B00080B582B000AF0200FB1D1A70FFF7D8FFB4
:1005C000FB1D1B78180000F0FFFBC046BD4602B0C3
:1005D00080BDC046B0B582B000AF05000C00100071
:1005E0001900BB1D2A1C1A803B1D221C1A80BB1C33
:1005F000021C1A803B000A1C1A802A20FFF7C6FF43
:10060000BB1D1B881B0A9BB2DBB21800FFF7D0FF93
:10061000BB1D1B88DBB21800FFF7CAFFBB1C1B8881
:100620001B0A9BB2DBB21800FFF7C2FFBB1C1B8882
:10063000DBB21800FFF7BCFF2B20FFF7A7FF3B1D25
:100640001B881B0A9BB2DBB21800FFF7B1FF3B1DF2
:100650001B88DBB21800FFF7ABFF3B001B881B0AAF
:100660009BB2DBB21800FFF7A3FF3B001B88DBB295
:100670001800FFF79DFF2C20FFF788FFC046BD46FE
:1006800002B0B0BD80B582B002AF0021082000F0FA
:1006900003FBFFF743FFC020FFF778FF2120FFF7A0
:1006A00087FFC120FFF772FF1020FFF781FFC520F1
:1006B000FFF76CFF3120FFF77BFF3C20FFF778FF4F
:1006C000C720FFF763FFC020FFF772FF3620FFF758
:1006D0005DFF4820FFF76CFF3A20FFF757FF5520DA
:1006E000FFF766FFB120FFF751FF0020FFF760FF23
:1006F0001B20FFF75DFFB620FFF748FF0020FFF744
:1007000057FF8220FFF754FF2720FFF751FF1120EA
:10071000FFF73CFF7820FFF7EDFE2920FFF736FFBB
:100720002C20FFF733FF0520FFF7E4FEA0235A003B
:10073000002300931300F0220021002000F098F81D
:10074000C046BD4680BDC04690B583B000AF040032
:1007500008001100BB1D221C1A803B1D021C1A80C0
:10076000BB1C0A1C1A80BB1D1B8801339AB23B1D9F
:100770001B8801339CB23B1D1988BB1D18882300C0
:10078000FFF728FFBB1C1B881B0A9BB2DBB21800BB
:10079000FFF70EFFBB1C1B88DBB21800FFF708FF3A
:1007A000C046BD4603B090BDB0B584B000AF0500F3
:1007B0000C0010001900BB1D2A1C1A803B1D221CB6
:1007C0001A80BB1C021C1A803B000A1C1A80BA1D2E
:1007D000BB1C12881B88D3189BB2013B9CB23A1DEC
:1007E0003B0012881B88D3189BB2013B9AB23B1D79
:1007F0001988BB1D188813002200FFF7EBFE3B1D74
:1008000000221A802AE0BB1D00221A801BE03B6AEE
:100810009A1C3A620E22BA181B8813800E23FB180A
:100820001B881B0A9BB2DBB21800FFF7C1FE0E2328
:10083000FB181B88DBB21800FFF7BAFEBB1D1A8835
:10084000BB1D01321A80BA1DBB1C12881B889A423C
:10085000DDD33B1D1A883B1D01321A803A1D3B0037
:1008600012881B889A42CED3C046BD4604B0B0BDA4
:10087000B0B582B000AF05000C0010001900BB1D20
:100880002A1C1A803B1D221C1A80BB1C021C1A80C9
:100890003B000A1C1A80BA1DBB1C12881B88D31887
:1008A0009BB2013B9CB23A1D3B0012881B88D318B7
:1008B0009BB2013B9AB23B1D1988BB1D18881300DF
:1008C0002200FFF787FE3B1D00221A8023E0BB1D9C
:1008D00000221A8014E01823FB181B881B0A9BB205
:1008E000DBB21800FFF764FE1823FB181B88DBB28D
:1008F0001800FFF75DFEBB1D1A88BB1D01321A8070
:10090000BA1DBB1C12881B889A42E4D33B1D1A886F
:100910003B1D01321A803A1D3B0012881B889A4207
:10092000D5D3C046BD4602B0B0BDC04690B58BB071
:1009300002AFF8600C00100019000A23FB18221CFB
:100940001A800823FB18021C1A80BB1D0A1C1A807F
:100950000023FB6100233B610023FB6156E0FB6940
:10096000FA68D3181B78203B1A0013009B009A18D2
:100970002B4BD3183B6100237B612FE00023BB612D
:1009800026E07B693A69D3181B781A00BB691A41C3
:100990001300012213400CD0BA6913009B009A186F
:1009A0007B69D2181F4B5200302179180988D15227
:1009B0000BE0BA6913009B009A187B69D218194B97
:1009C0005200342179180988D152BB690133BB61C7
:1009D000BB69062BD5DD7B6901337B617B69042B09
:1009E000CCDDBB1D19880823FB1818880D4B00931C
:1009F00007230522FFF7D8FE0823FB180822BA18A0
:100A0000128809321A80FB690133FB610A23FB1843
:100A10001A88FB699A42A2DCC046BD4609B090BD67
:100A2000D81300000401001080B586B000AFF86054
:100A3000B9601900FB1D1A70BB1D0A1C1A70FB68F7
:100A40002022BA1812881A80FB682422BA18128849
:100A50005A80FB1D1B789AB2FB689A80BB1D1B78DD
:100A60009AB2FB68DA801623FB1800221A80FB6812
:100A7000BA689A60C046BD4606B080BD90B585B0E4
:100A800002AF78607B681B7B002B0ED07B681888D8
:100A90007B6859887B689A887B68DC887B689B6860
:100AA00000932300FFF780FE0CE07B6818887B68CA
:100AB00059887B689A887B68DC8800230093230030
:100AC000FFF7D6FEC046BD4603B090BD80B582B0EC
:100AD00000AF78607B6801221A737B681800FFF70B
:100AE000CDFFC046BD4602B080BDC04680B582B0D5
:100AF00000AF78607B6800221A737B681800FFF7EC
:100B0000BDFFC046BD4602B080BDC04680B584B0C2
:100B100000AF786008001100BB1C021C1A803B006B
:100B20000A1C1A800F23FB187A68127B1A700F2395
:100B3000FB181B78002B03D07B681800FFF7D6FF4B
:100B40007B68BA1C12881A807B683A0012885A8027
:100B50000F23FB181B78002B03D07B681800FFF7CE
:100B6000B5FFC046BD4604B080BDC04680B582B06A
:100B700000AF786008001100BB1C021C1A803B000B
:100B80000A1C1A807B681B7B002B01D1002324E008
:100B90007B681B88BA1C12889A421DD3BB1C1A881A
:100BA0007B681B8819007B689B88CB189A4213DAF4
:100BB0007B685B883A0012889A420BD33B001A8804
:100BC0007B685B8819007B68DB88CB189A4201DA66
:100BD000012302E0002300E000231800BD4602B01C
:100BE00080BDC04680B500AF084B084A126840215E
:100BF0000A431A60064B91221A60064BB0221A6013
:100C0000054B10221A60C046BD4680BD808004405E
:100C10009040044094400440A040044080B582B01D
:100C200000AFBB1D00221A80194B1B68082213401D
:100C300005D1BB1DBA1D128801210A431A80144B2D
:100C40001B682022134005D1BB1DBA1D128802214A
:100C50000A431A800E4B1B68102213400ED10D4B15
:100C600000229B5E002B05D1BB1DBA1D12880421FA
:100C70000A431A80074B01221A8002E0054B00222A
:100C80001A80BB1D00229B5E1800BD4602B080BDCD
:100C9000FC3F01504A01001080B584B000AF78607D
:100CA0003960384B374A126837490A431A60374B64
:100CB000364A1268802149000A431A60344B0122E7
:100CC0001A60344B81221A60334B334A12688221F6
:100CD00009010A431A60314B304A126830490A4010
:100CE0001A60304B00221A602B4B2B4A12680421E9
:100CF0000A431A60294B294A126804218A431A6060
:100D0000294B00221A60224B12221A60274B112213
:100D10001A60274B11221A601A4B1A4A1268802156
:100D200009010A431A60234B224A126801218A43AF
:100D30001A60204B1F4A126801210A431A601E4B99
:100D400001221A601D4B02221A601D4B7A68511E47
:100D50003A6892018A181A601A4B02221A6000231C
:100D6000FB6007E0002000F02FF80300BB60FB6889
:100D70000133FB60FB681F2BF4DDC046BD4604B0A9
:100D800080BDC046808004404000010034400440E3
:100D9000684004407440044000800050FC3F005014
:100DA000DFF7FFFF1C400440B040044060400440B7
:100DB00064400440048004409480044010000440D7
:100DC000000004400400044080B582B000AF02007F
:100DD000FB1D1A70084BFA1D12781A60C046074BAB
:100DE0001B6810221340FAD1034B1B68DBB21800BA
:100DF000BD4602B080BDC046080004400C0004405F
:100E000080B582B000AF7860C0467B685A1E7A60B9
:100E1000002BFAD1C046BD4602B080BD80B586B079
:100E200000AF0200BB1D1A803B1D0A1C1A80BB1DAF
:100E30001B88053B9AB20823FB181A803B1D1B88B0
:100E4000063B9AB20823FB185A800823FB180A2293
:100E50009A800823FB180C22DA800823FB180C4A1E
:100E60009A600823FB1801221A730823FB18180044
:100E7000FFF72CFE074B1800FFF7C2FF0823FB18F3
:100E80001800FFF733FEC046BD4606B080BDC04621
:100E900070170000A086010080B500AF0E4B0E4A0F
:100EA00012680E490A431A600D4B0D4A1268072159
:100EB0008A431A600B4B0B4A126808210A431A60D6
:100EC000094B094A126808214A401A60074B18006A
:100ED000FFF796FFF4E7C046808004404000010021
:100EE0002C40044000800050FC3F005040420F0066
:100EF00090B589B002AF0923FB1800221A7017239E
:100F0000FB1800221A701623FB1800221A70002307
:100F10003B610023FB600A23FB1801221A80FFF7C4
:100F200035F9A74B1800FFF773FAFFF7ABFBFFF794
:100F300059FEA44800230193A34B009328230A22BF
:100F40000C21FFF7F3FCA14B1800FFF759FFA0237A
:100F50005A00002300931300F02200210020FFF725
:100F600087FC1EE29A4B1800FFF7B0FDFFF756FE14
:100F700003001A00BB1D1A80BB1D1B8801221340F1
:100F80000DD0934B1B88E52B09D8914B1B8801335F
:100F900099B28F4B5A888E4B1800FFF7B7FDBB1DD7
:100FA0001B88022213400DD0894B1B88002B09D0CF
:100FB000874B1B88013B99B2854B5A88844B18009C
:100FC000FFF7A4FDBB1D1B88042213404ED017233E
:100FD000FB1800221A7044E01723FB181B787D4A87
:100FE0001B01D3180C331B78002B33D11723FB18AC
:100FF0001B781A01774BD3181800FFF767FD1723EA
:10100000FB181B781A01734BD018714B1A88704B60
:101010009B885B089BB2D3189AB21723FB181B78E6
:101020006C491B01CB1804331B885B089BB2D31A95
:101030009CB2674B5A881723FB181B7865491B0124
:10104000CB1806331B88D31A9BB21A002100FFF776
:101050005DFD0BE01723FB181A781723FB180132EC
:101060001A701723FB181B78042BB5D91723FB180C
:1010700000221A7094E01723FB181B78554A1B01B5
:10108000D31802331B88002B23D01723FB181B789F
:10109000504A1B01D3180C331B78002B19D017238F
:1010A000FB181B781A014B4BD0181723FB181A7822
:1010B000484B1201D15A1723FB181B78454A1B01D4
:1010C000D31802331B88013B9BB21A00FFF71EFDA9
:1010D00012E01723FB181B783E4A1B01D3180C3370
:1010E0001B78002B08D01723FB181B78394A1B01EB
:1010F000D3180C3300221A701623FB1800221A7022
:1011000042E01623FB181B781A01334BD018172323
:10111000FB181A782F4B1201D15A1723FB181B7892
:101120002C4A1B01D31802331B881A00FFF71EFD3F
:10113000031E22D01623FB181B781A01264BD31846
:101140001800FFF7D3FC1723FB181B781A01214B5B
:10115000D3181800FFF7CAFC1723FB181A781D4B89
:101160001201D05A1723FB181B781A4A1B01D318F7
:1011700002331B881900FFF751FE1623FB181A785B
:101180001623FB1801321A701623FB181B78092B43
:10119000B7D91723FB181A781723FB1801321A70D6
:1011A0001723FB181B78042B00D864E700233B614E
:1011B0000123FB601623FB1800221A70C3E0C0460F
:1011C0006018000070180000FFFF00008096980073
:1011D000A0000010B0000010000000101623FB1843
:1011E0001B78764A1B01D3180C331B78002B00D1D7
:1011F000A2E00023FB601623FB181B781A016F4B3B
:10120000D0181623FB181A786C4B1201D25A0A23F5
:10121000FB181B88D31899B21623FB181B78674A52
:101220001B01D31802331B8801339BB21A00FFF74E
:101230006DFC1623FB181A78604B1201D35A190063
:101240001623FB181B785D4A1B01D31804331B8837
:101250001A00F0239B1A994201DB01233B611623FC
:10126000FB181A78554B1201D35A002B01D10123D8
:101270003B611623FB181B78504A1B01D31802331D
:101280001A88A0235B009A4208D91623FB181B7802
:101290004A4A1B01D318023300221A801623FB1876
:1012A0001A78464B1201D25A1623FB181B78434971
:1012B0001B01CB1804331B885B089BB2D31898B270
:1012C0001623FB181B783D4A1B01D31802331A88DA
:1012D0001623FB181B7839491B01CB1806331B88D2
:1012E0005B089BB2D3189AB2354B01001800FFF788
:1012F0003DFC031E20D0324B1A88314B5B8819000D
:101300001000FFF78BFD2F4B1800FFF781F8A0238B
:101310005A00002300931300F02200210020FFF761
:10132000A7FA294800230193284B0093642328221D
:101330000921FFF7FBFAFEE71623FB181A7816239C
:10134000FB1801321A701623FB181B78092B00D8E2
:1013500044E7FB68002B14D0A0235A001F230093FE
:101360001300F02200210020FFF782FA18481F2303
:101370000193184B0093642328220821FFF7D6FA23
:10138000FEE70A23FB180A22BA1812881A803B6962
:10139000002B06D00A23FB180A22BA1812885242E0
:1013A0001A800923FB181B78002B00D1DAE5FFF720
:1013B00073FD00231800BD4607B090BD000000106B
:1013C000A0000010801800008C180000FFFF000033
:0813D00098180000E0FF000086
:1013D800000000000000005F000000070007001484
:1013E8007F147F14242A7F2A122313086462364943
:1013F8005522500005030000001C22410000412234
:101408001C00082A1C2A0808083E0808005030005A
:10141800000808080808006060000020100804029E
:101428003E5149453E00427F4000426151494621B4
:1014380041454B311814127F1027454545393C4A20
:101448004949300171090503364949493606494970
:10145800291E003636000000563600000008142207
:1014680041141414141441221408000201510906ED
:10147800324979413E7E1111117E7F494949363EF4
:10148800414141227F4141221C7F494949417F090D
:101498000901013E414151327F0808087F00417F20
:1014A80041002040413F017F081422417F404040D5
:1014B800407F0204027F7F0408107F3E4141413E85
:1014C8007F090909063E4151215E7F0919294646CF
:1014D8004949493101017F01013F4040403F1F20F8
:1014E80040201F7F2018207F6314081463030478AA
:1014F8000403615149454300007F4141020408103B
:101508002041417F00000402010204404040404065
:10151800000102040020545454787F484444383869
:1015280044444420384444487F3854545418087E6E
:10153800090102081454543C7F0804047800447DCF
:1015480040002040443D00007F10284400417F4077
:10155800007C041804787C0804047838444444382F
:101568007C14141408081414187C7C080404084813
:1015780054545420043F4440203C4040207C1C20CC
:1015880040201C3C4030403C44281028440C50501B
:10159800503C4464544C44000836410000007F002D
:1015A80000004136080008082A1C08081C2A0808F8
:1015B8000000000000000000000000000000000023
:1015C800000000000000000000000000E0FFE0FF55
:1015D8000000000000000000000000000000E0FF24
:1015E800E0FFE0FFE0FF0000000000000000E0FF77
:1015F800E0FF0000E0FFE0FF0000E0FFE0FF000088
:101608000000E0FFE0FF0000E0FFE0FF0000E0FF77
:10161800E0FF00000000E0FFE0FFE0FFE0FFE0FF88
:10162800E0FFE0FFE0FF00000000E0FFE0FFE0FF78
:10163800E0FFE0FFE0FFE0FFE0FF00000000000047
:10164800E0FFE0FF00000000E0FFE0FF0000000016
:1016580000000000E0FFE0FF00000000E0FFE0FF06
:10166800000000000000E0FFE0FF000000000000B4
:101678000000E0FFE0FF0000E0FFE0FFE0FF000007
:10168800000000000000E0FFE0FFE0FF00000000B5
:101698000000000000000000000000000000000042
:1016A8000000000000000000000000000000000032
:1016B800000000000000000000000000FF7FFF7F26
:1016C8000000000000000000000000000000000012
:1016D800FF7FFF7F00000000000000000000FF7F88
:1016E800FF7FFF7FFF7FFF7FFF7FFF7FFF7F000080
:1016F800FF7FFF7FFF7FFF7FFF7FFF7FFF7FFF7FF2
:10170800FF7FFF7FFF7FFF7FFF7FFF7FFF7FFF7FE1
:10171800FF7FFF7FFF7FFF7F00000000E0030000E6
:1017280000000000E003E003E00300000000E00325
:10173800E003E00300000000E003E003E003000032
:101748000000E003E003E0030000E003E003E0033F
:10175800E003E003E003E003E003E003E00300004C
:101768000000E0030000000000000000000000008E
:1017780000F800F8000000000000000000F8000079
:101788000000000000F800F800000000000000F869
:10179800000000F80000000000F800F80000000059
:1017A80000F800000000000000F8000000F800F851
:1017B800000000F80000000000000000000000F831
:1017C80000F800F800F800000000000000F800F839
:1017D80000F800F800F800F800F800F800F800F841
:1017E80000F800F800F800F800F800F800F800F831
:1017F80000F800F800000000000000F800F800F809
:1018080000F80000000000000000000000F80000E0
:1018180000F800F8000000F800000000000000F8E0
:101828000000000000F800F80000000000F80000C8
:1018380000F800000000000000F800F800000000B8
:10184800000000F8000000000000000000F800F8A8
:1018580000000000000000004D435520496E7661ED
:1018680064657273210000004D435520494E56416E
:10187800444552530000000047616D65204F76656E
:101888007200000047414D45204F56455200000068
:09189800564943544F52592100F6
:1018A100030003000A000C00B8150000010000004D
:1018B100170003000A000C00B81500000100000029
:1018C1002B0003000A000C00B81500000100000005
:1018D1003F0003000A000C00B815000001000000E1
:1018E100530003000A000C00B815000001000000BD
:1018F100530003000A000C00B815000001000000AD
:10190100670003000A000C00B81500000100000088
:101911007B0003000A000C00B81500000100000064
:101921008F0003000A000C00B81500000100000040
:10193100A30003000A000C00B8150000010000001C
:10194100C30018010A000600A816000000000000EC
:101951000000000005000800201700000000000042
:101961000000000005000800201700000000000032
:101971000000000005000800201700000000000022
:101981000000000005000800201700000000000012
:101991000000000005000800201700000000000002
:00000001FF
